:100000000C942A000C9434000C9434000C943400AA
:100010000C9434000C9434000C9434000C94340090
:100020000C9434000C9434000C9434000C94340080
:100030000C9434000C9434000C9434000C94340070
:100040000C9434000C9434000C9434000C94340060
:100050000C94340011241FBECFE5D4E0DEBFCDBF29
:100060000E9436000C94B4010C940000CF93DF93EF
:10007000CDB7DEB76D970FB6F894DEBF0FBECDBF1C
:100080001D8A1A8E88E0898F81E08E8B80E699E048
:100090009C8F8B8F1F8A82E08D8FCE0145960E94A8
:1000A0005A00CE0101960E947301CE0101960E9472
:1000B0005E01F7CFCF93DF93EC018881813049F562
:1000C00080B58F7780BD2E813F81220F331F40E0A6
:1000D00050E060E472E48FE090E00E9492012150D1
:1000E000310929B930BD80B5806880BD80B5806494
:1000F00080BD8B81811105C080B58E7F80BD80E081
:1001000067C0813009F061C080B5816080BD80E04A
:100110005FC081115CC08D81811127C0599880B565
:100120008F7780BD2E813F81C901A0E0B0E0880FAC
:10013000991FAA1FBB1F880F991FAA1FBB1F9C01D5
:10014000AD01220F331F441F551F220F331F441FC1
:10015000551F60E472E48FE090E00E94920121500C
:10016000310929B930BD80E026C0813019F5599A8E
:1001700080B58F7780BD2E813F81C901A0E0B0E0BE
:10018000880F991FAA1FBB1F880F991FAA1FBB1F8B
:100190009C01AD01220F331F441F551F60E472E420
:1001A0008FE090E00E9492012150310929B930BDC1
:1001B00080E001C08FEF90B5906890BD90B59F7BB7
:1001C00090BD90B59E7F90BD03C080E001C080E0EF
:1001D0009A81992359F09A3081F09B30A1F490B51F
:1001E000906290BD90B5906190BD0DC090B59F7D1F
:1001F00090BD90B59F7E90BD06C090B5906290BDB9
:1002000090B59F7E90BD9981913021F490B5977FF4
:1002100090BD05C0923019F490B5986090BD9C8156
:100220009730D9F028F4953041F0963069F50DC03B
:100230009830D9F0993041F520C090B59D7F90BDA0
:1002400090B59B7F90BD52981FC090B5926090BDB5
:1002500090B59B7F90BD529817C090B59D7F90BD83
:1002600090B5946090BD52980FC090B5926090BDCB
:1002700090B5946090BD529807C090B5926090BDC3
:1002800090B5946090BD529A9885913021F030F0ED
:10029000923049F406C0539A549805C0549A539822
:1002A00002C0539A549ADF91CF9108955D9BFECF7F
:1002B0008CB908955F9BFECF8CB108951F93CF93A7
:1002C000DF93EC018881882351F010E00E945601F1
:1002D0001F5FFE01E10FF11D80818111F7CFDF91DA
:1002E000CF911F910895FF920F931F93CF93DF93A8
:1002F0008C010E945A01F8018083833259F0F12C5D
:10030000F394E801CF0DD11D0E945A0188838332F6
:10031000B9F701C0E8011882DF91CF911F910F91C9
:10032000FF900895A1E21A2EAA1BBB1BFD010DC070
:10033000AA1FBB1FEE1FFF1FA217B307E407F50795
:1003400020F0A21BB30BE40BF50B661F771F881F71
:10035000991F1A9469F760957095809590959B0107
:0C036000AC01BD01CF010895F894FFCF5F
:00000001FF
