:100000000C942A000C9434000C9434000C943400AA
:100010000C9434000C9434000C9434000C94340090
:100020000C9434000C9434000C9434000C94340080
:100030000C9434000C9434000C9434000C94340070
:100040000C9434000C9434000C9434000C94340060
:100050000C94340011241FBECFE5D4E0DEBFCDBF29
:100060000E9436000C94CB000C940000CF93DF93D9
:100070001F92CDB7DEB7198284E390E02FEFFC0129
:10008000208385E390E0FC01108201C000000E9403
:100090005300898389818A30C8F785E390E02981FC
:1000A000FC012083F3CFCF93DF9300D0CDB7DEB731
:1000B000198246C08AE390E02981422F50E020E176
:1000C00030E002C0220F331F4A95E2F7FC01208383
:1000D0008BE390E02981422F50E020E130E0042EB4
:1000E00002C0220F331F0A94E2F72095FC012083FF
:1000F0001A8220C089E390E0FC018081882F90E083
:100100002A81222F30E0022E02C0959587950A940D
:10011000E2F781709927009751F49A81892F880F0F
:10012000980F8981890F8F5F0E94AA000EC08A8173
:100130008F5F8A838A818430E8F289818F5F898327
:100140008981833008F4B6CFB3CF0F900F90DF9141
:10015000CF910895CF93DF931F92CDB7DEB78983F8
:100160008981882F90E08A30910551F08A3091057D
:100170006CF08B30910531F08C30910529F006C080
:100180008AE205C080E003C083E201C089810F904C
:0A019000DF91CF910895F894FFCF9E
:00000001FF
