S00A00006B702E737265633F
S11300000C942A000C943C000C943C000C943C008E
S11300100C943C000C943C000C943C000C943C006C
S11300200C943C000C943C000C943C000C943C005C
S11300300C943C000C943C000C943C000C943C004C
S11300400C943C000C943C000C943C000C943C003C
S11300500C943C0011241FBECFE5D4E0DEBFCDBF1D
S113006020E0A0E6B0E001C01D92AC37B207E1F792
S11300700E9499010C94A2010C940000FC0180815F
S1130080823449F018F4813489F40EC0833431F099
S1130090843461F406C0A7E3B0E008C0A4E3B0E090
S11300A005C0A1E3B0E002C0AAE3B0E082818130E0
S11300B061F481E090E0018002C0880F991F0A94E6
S11300C0E2F79C91892B8C93089581110CC081E0F7
S11300D090E0018002C0880F991F0A94E2F780958E
S11300E09C9189238C930895FC018081823449F08A
S11300F018F4813489F40EC0833431F0843461F40B
S113010006C0A8E3B0E008C0A5E3B0E005C0A2E3E0
S1130110B0E002C0ABE3B0E08381813061F481E000
S113012090E0018002C0880F991F0A94E2F79C9125
S1130130892B8C93089581110CC081E090E001809B
S113014002C0880F991F0A94E2F780959C91892335
S11301508C930895FC018081823449F018F4813431
S113016089F40EC0833431F0843461F406C0A6E30C
S1130170B0E008C0A3E3B0E005C0A0E3B0E002C073
S1130180A9E3B0E08C9190E0018002C09595879539
S11301900A94E2F7817008958A3031F050F08B3080
S11301A039F08C3031F402C08AE2089583E2089574
S11301B080E008954F925F926F927F928F929F9208
S11301C0AF92BF92CF92DF92EF92FF920F931F9361
S11301D0CF93DF93912C0F2EF3E66F2EF0E07F2E5A
S11301E0F02DE12CF12C0F2EF1E4AF2EF02DBB24D9
S11301F0B3940F2EFFE64F2EF0E05F2EF02D812CEE
S113020084C0FE013397A082FE013297802F8C5F59
S11302108083FE0131971082B882C801880F991F2C
S1130220880F991F0F2EF0E6CF2EF0E0DF2EF02D71
S1130230C80ED91EC6010E943E00C6010E94740069
S11302400F5F1F4F249603301105D9F6E201870191
S1130250FE013397A082FE0132970083FE0131979D
S11302601082B882C801880F991F880F991F0F2E1A
S1130270FCE6CF2EF0E0DF2EF02DC80ED91EC6010D
S11302800E943E00C6010E9474000F5F1F4F249617
S113029004301105E9F6C92DD0E0CC0FDD1FCC0FD9
S11302A0DD1FC05ADF4FA882892D8C5F8983BA82F3
S11302B01B82CE010E943E00CE010E947400870181
S11302C0D02EE801CC0FDD1FCC0FDD1FC459DF4F4A
S11302D0CE010E94AA0081110EC0CE010E94AA0084
S11302E08823D9F3892D8F5F9D2D990FD90E8D0DFC
S11302F00E94CC000DC00F5F1F4F0430110501F7A1
S1130300939482E0891508F4982CE301870179CF4E
S1130310DF91CF911F910F91FF90EF90DF90CF90DD
S1130320BF90AF909F908F907F906F905F904F9011
S113033008958FEF84BB15BA0E94DA008A30E0F783
S10B034085BBFACFF894FFCF4E
S9030000FC
